:020000020000FC
:100000000C942A000C94A7050C9444090C944509FF
:100010000C947B050C9446090C9447090C946B06D0
:100020000C9448090C9449090C94DB010C944A097E
:100030000C944B090C944C090C944D090C944E09EA
:100040000C944F090C9450090C9451090C945209CA
:100050000C94530904E00EBF0FE20DBF67D113D11A
:1000600029D0DED0E8D00E94490857D0FAD26AD110
:100070002DD1B0D7F4D40E94800800271127CAD20E
:100080007894DDD4DBD50E94B0080E94F9080E9464
:1000900080080091110100FFF4CF7CD40091110180
:1000A00001FFEFCFCFD3EAD305D43CD41FD456D42D
:1000B000A4D5E7CF0AE000B900E001B90895000037
:1000C000019103B904E806BF06B707FFFDCF01B1F0
:1000D000087F083209F40895089504EA06BF06B7B8
:1000E00007FFFDCF01B1087F083011F0003171F436
:1000F00000910001000F03B904E806BF06B707FF2F
:10010000FDCF01B1087F083109F40895089504E98D
:1001100006BF00E806BF0895089500001127109358
:10012000020100E117D003E362D005E013D003E33E
:100130005ED001E00FD002E25AD008E226D008E0FB
:1001400024D001E022D003E005D006E01ED00CE070
:100150001CD0089520E411E300000000000000001E
:100160001A95E1F72A95B9F70A95A1F708950000C5
:10017000402F006811271093020107D00895000056
:1001800011271093020101D008950000B02F0C60D8
:1001900010910201012B0D7F00932001009120019D
:1001A0000B7F00932101BB0FBB0FBB0FBB0F0B2FAE
:1001B0000C6010910201012B0D7F00932201009130
:1001C00022010B7F00932301FF93EF93F1E0E0E224
:1001D00084DF75DF74DF73DF72DF99DFEF91FF91EA
:1001E0000895000011E010930201CFDF0895000090
:1001F000902F0C600C7F00932001F1E0E0E207E219
:10020000009300016ADF5BDF82DFF1E0E0E2009152
:1002100020010B7F0093200160DF51DF78DF08951C
:10022000002702BF00E003BF09EF0CBF09B702605F
:1002300009BF08BF089500E00FBD08E00EBD00E053
:1002400010E009D000ED17E012D009B710E1012B42
:1002500009BF08BF08952FB7F8941DBD0CBD2FBF6F
:1002600008952FB7F8940CB51DB52FBF08952FB77B
:10027000F8941BBD0ABD2FBF08952FB7F8940AB597
:100280001BB52FBF08950000002707BB00E008BB87
:1002900000270ABB00E00BBB002701BB04E002BB48
:1002A00005B703E005BF00E40BBF00EF04BB002768
:1002B00005BB0AB300670ABB0BB30F780BBB0AB3CD
:1002C0000F770ABB0BB30F770BBB0895000000E05C
:1002D0004EDF08E586DF0CE284DF0DE682DF0DE607
:1002E00080DF06E044DF00E07CDF01E47ADF01E04C
:1002F00078DF0CE03CDF02E074DF0FE472DF03E044
:1003000070DF0EE26EDF00E432DFA0910C0190910D
:100310000D01FAD106E42BDFAA279AE0909304019D
:10032000F3D1AA279091070150D208950027009396
:1003300012010093380101E000933C0100E00093BA
:100340003401089520E010E04CD30093070123D03E
:1003500020E012E046D30F3F71F013E020E041D3DC
:1003600000930D010093330114E020E03AD3009391
:100370000C010093320100910C01009308010093DD
:10038000320100910D01009309010093330103E054
:100390000093110108950091070112E0019F0AE006
:1003A000000E20E0102D1DD300930C01139519D3DE
:1003B00000930D0108950F930FB70F93002702BF0D
:1003C00013FF12600F910FBF0F9118950000B4D664
:1003D000AA27909107019395943609F490E09093A1
:1003E0000701D9DFF2D100E4C2DEA0910C019091A7
:1003F0000D018AD10895A0D6AA27909107019A9558
:100400009F3F09F493E690930701092FC4DFDDD1E4
:1004100000E4ADDEA0910C0190910D0175D108951D
:100420000000F89489D6B0910801A0910901F091DB
:100430000C01E0910D01F0933201E0933301BF1301
:1004400015C0AE1313C0EBD310E020E0CAD2109158
:100450000701101305C000E000931601112768C0C2
:10046000012F10E020E0B2D2112762C0AF9AEA1B40
:10047000FB0B82F4DC98F0910C01E0910D01AE1BB6
:10048000BF0BB695A795D0910801C0910901CA1B71
:10049000DB0B07C0DC9AF695E795CA2FDB2FCE0F52
:1004A000DF1FD0930A01C0930B01009113010030AC
:1004B00029F0222710E00091070188D2B0910801AD
:1004C000A0910901F0910C01E0910D019B2F8A2F61
:1004D00050E961E000E010E0BEDE00ED17E0C7DEAD
:1004E00001E00093120100911301003009F1009125
:1004F00014010130E9F00F931F932F933F934F9313
:100500005F936F937F938F939F93AF93BF9300E419
:100510002EDEA92F982FF8D0BF91AF919F918F9188
:100520007F916F915F914F913F912F911F910F910B
:10053000F0931701E0931801D0931901C0931A01A9
:10054000B0931B01A0931C0190931D0180931E0189
:1005500070931F0160932601509327014093280157
:1005600030932901789408950000E6D5AE9ACF998A
:10057000DC9ACF9BDC98DC9B05C0A0E058D260E001
:1005800054E102C0A1E04CD200E010E064DE01E0E2
:100590000093120100E00BBF70E981E0F0931701B6
:1005A000E0931801D0931901C0931A01B0931B0175
:1005B000A0931C0190931D0180931E0170931F0155
:1005C000609326015093270140932801309329011D
:1005D0000895B2D500913401013009F0089510D08A
:1005E0000091070112E0019F002D1AE0100F222751
:1005F00000910C01EBD1139500910D01E7D1089505
:10060000F894AD9A04E6A6DDAD9804E6A3DDAD9AB4
:1006100078940895AC9B09C0AC9803E00093110155
:1006200000E40ABF0BBF88D50895AC9A01E000939F
:10063000110100E00BBF88D508957ED5009104011B
:100640000A3021F0013021F001E003C004E601C0CE
:100650000AE000930401902FAA2706E488DD54D015
:10066000089500E41127109302018FDD15E125E1C3
:1006700035E145E155E165E17FE180E01CD01FE116
:1006800021E130E140E150E160E170E180E013D030
:100690001FE121E131E141E151E161E171E180E0FE
:1006A0000AD01EE021E131E042E051E061E17EE06C
:1006B00080E001D00895012F94DD022F92DD032FF9
:1006C00090DD042F8EDD052F8CDD062F8ADD072FB0
:1006D00088DD082F86DD0895971BA80B0895970FD6
:1006E000A81F089500000027AF939F93971BA80BA6
:1006F0000395E0F70A95709F9F91AF919019002E96
:10070000092F902DAA27089500002F931F932227C9
:1007100088277AE0E7DF80E3080F8827203041F060
:10072000213021F0223001F0402E03C0302E01C0D4
:10073000202E2395233069F74C3411F0042D51DD20
:10074000032D4FDD4C3411F00EE24BDD022D49DD5F
:1007500044271F912F91089500000F936F937F936B
:100760008F939F93903041F0913059F0923071F017
:10077000933089F09430A1F060E571E482E59BE468
:1007800014C060E374E385E390E30FC060E376E3B5
:1007900085E390E30AC060E379E380E390E305C07A
:1007A00061E373E385E390E300C00CE4E0DC062F33
:1007B00018DD072F16DD082F14DD092F12DD9F919C
:1007C0008F917F916F910F9108950000953010F4F3
:1007D000C3DF08950CE4CBDC00E203DD95DF00E22B
:1007E00000DD0895000010FD0AC02227002702BF87
:1007F0000BE003BF08B7026008BF1160089511FF46
:10080000089523951D7F12FD07C014FD08C02A30EE
:10081000C1F41460222708C0243141F005C015FF3F
:1008200003C02A3059F0089526F0089518611B7FFF
:10083000089514FF03C0106222270895002703BF04
:1008400011270895000010FF05C000910301013039
:1008500009F0089506B3009504FB10FD05C00EF4E1
:10086000089501E000930301BDDF1F932F9313FD53
:10087000ADDD2F911F9113FD177F0895000010FF2C
:1008800005C000910301023009F0089506B30095F8
:1008900003FB10FD05C00EF4089502E00093030170
:1008A000A1DF1F932F9313FDA6DD2F911F9113FD41
:1008B000177F0895000010FF05C000910301033069
:1008C00009F0089506B3009502FB10FD05C00EF473
:1008D000089503E00093030185DF1F932F9313FD19
:1008E0009FDD2F911F9113FD177F0895000010FFCA
:1008F00005C000910301043009F0089509B3009583
:1009000001FB10FD05C00EF4089504E000930301FF
:1009100069DF1F932F9313FD27DE2F911F9113FD86
:10092000177F0895000010FF05C0009103010530F6
:1009300009F0089509B3009500FB10FD05C00EF401
:10094000089505E0009303014DDF1F932F9313FDDE
:1009500040DE2F911F9113FD177F0895000010FFB7
:1009600005C000910301063009F0089509B3009510
:1009700002FB10FD05C00EF4089506E0009303018C
:1009800031DF1F932F9313FD58DE2F911F9113FD1D
:10099000177F0895000010FF05C000910301073084
:1009A00009F0089506B3009501FB10FD05C00EF493
:1009B000089507E00093030115DF1F932F9313FDA4
:1009C00029DE2F911F9113FD177F08950000F894E1
:1009D000E199FCCF2FBB1EBB0DBBE29AE19A789444
:1009E0000895F894E199FDCF2FBB1EBBE09A0DB39B
:1009F00078940895772466245524442440E0209F69
:100A0000400C511C641E741E219F500C611C741EEE
:100A1000309F500C611C741E319F600C711C089536
:100A20000BEA12E024DC00E010E015DC089500ED94
:100A300017E01DDC00E010E00EDC08950895009141
:100A4000120100FF089509E00EBD09B70D7F09BF2F
:100A5000E6D00091120100FDFBCF10E0089520E0E8
:100A600012E0BFDFC99B1BC0B19919C0B29917C072
:100A7000003061F00091090113E02227A7DF009107
:100A8000080114E02227A2DF002701C00FEF20E0B9
:100A900012E09CDF003061F0C999FECF1AC000302F
:100AA00039F0B19916C0B29914C0C999FECF11C0DE
:100AB00000E00093130104E00093030155DDBFDF64
:100AC0006ADC03E000930301ABDCB9DF01E00093D3
:100AD000130101E000931301089500E020E01AE003
:100AE00034E674DF41E0140F3A95D9F700E020E0D6
:100AF00010E06CDF089500000F931F932F933F9336
:100B00004F930FB700932B01002704BD20913101B3
:100B10001091300101E0100F0027201F05EF101386
:100B200009C001E0201306C00027009331010093A3
:100B3000300104C020933101109330014F913F9157
:100B40002F911F9100912B010FBF0F9118950F93BB
:100B50001F932F933F934F935F936F937F938F9345
:100B60009F93AF93BF930FB700932B010091340174
:100B7000003059F1E1D2CB9B0EC0A091320190918F
:100B80003301882770910401A7DDAF3F09F014C03D
:100B90009927AA2711C0A09132019091330188278B
:100BA000709104019CDDA23028F4953F28F0A1301B
:100BB00009F002C0A1E094EFA0930C0190930D0105
:100BC000A09332019093330110D000912B010FBFFD
:100BD000BF91AF919F918F917F916F915F914F9155
:100BE0003F912F911F910F91189501E000931401EF
:100BF000009315010093160108950091140101302E
:100C000069F401E00093160103E00093030108DC9E
:100C100001E000932C010027009314010895009136
:100C20001501013051F400E4A2DAA0910C01909179
:100C30000D016ADD00270093150108952F933F935E
:100C40004F9340912F0130912E0120912D01009161
:100C50002C01013061F421E03327442740932F0118
:100C600030932E0120932D01002700932C010027A3
:100C7000201305C0301303C0401301C028C001E099
:100C8000200F0027301F401F0FEF20131AC00FEF57
:100C9000301317C001E0401314C000910901F8940B
:100CA00013E020E093DE0091080114E020E08EDEE6
:100CB0007894222720932F0120932E0120932D0139
:100CC00006C040932F0130932E0120932D014F91A8
:100CD0003F912F910895DD9A00000000DD982CD2FD
:100CE0000F930FB700932B011F932F933F934F93B5
:100CF0005F936F937F938F939F93AF93BF93CF93A4
:100D0000DF93EF93FF93F0911701E0911801D091D9
:100D10001901C0911A01B0911B01A0911C01909181
:100D20001D0180911E0170911F016091260150915B
:100D3000270140912801309129010091030100FF12
:100D4000ADC001E0501B19F00027600B15C1002752
:100D5000600B09F011C150E961E0DC9B1CC001E0AF
:100D60001127800F911FE81303C0F91301C073C04E
:100D7000082F192F20E0D2130BC0C21309C0EF9324
:100D8000FF93E01BF10B0E2F1F2FFF91EF911AC065
:100D90000A1B1B0B17C001E01127801B910BE813E6
:100DA00003C0F913E5CF57C00A2F1B2F20E0D21341
:100DB00007C0C21305C0082F192F0E1B1F0B02C03E
:100DC000081B190B2CE6332715DE172D062D2227BD
:100DD000D2131CC0C2131AC0103051F5003041F5B7
:100DE000152D042D37E020ED201B310B38F032306B
:100DF00028F02B3A40F4323009F005C00091100180
:100E000010910F0126C0132F022F23C0103081F440
:100E1000003071F4152D042D37E020ED201B310B2F
:100E200038F0323028F02B3A30F4323009F003C079
:100E30000BEA12E002C0132F022F8C130AC09D137D
:100E400008C0BF2FAE2FDD27CC2710930F010093D2
:100E500010010DDA91C0AF9808E00EBD9093080123
:100E600080930901909332018093330101E0009354
:100E70002C0100911601013029F000E478D9A92F46
:100E8000982F42DC00E00093160100E40BBF09B785
:100E9000026009BF00E0009312016EC001E0701B08
:100EA00019F00027800B68C00027800B09F064C090
:100EB00070E981E0A03041F0A13089F0A230C9F0A2
:100EC000A33021F1A43049F101E0501B0027600B51
:100ED000503011F5603001F5A3E0DC984DC009B346
:100EE00007FF4AC0A2E0DC9A60E054E104E632D990
:100EF00043C001E0501B0027600B0027503061F415
:100F0000603051F494DDA3E0DC9836C009B307FFEC
:100F100033C0A4E060E051E02FC001E0501B002787
:100F2000600B00275030C1F76030B1F7AE9808E091
:100F30000EBD99278827909308018093090190930B
:100F400032018093330190930C0180930D0101E0F5
:100F500000932C0100911301003029F000E407D91F
:100F6000A92F982FD1DB00E40BBF09B7026009BF9E
:100F700000E00093120100C0F0931701E093180104
:100F8000D0931901C0931A01B0931B01A0931C01C7
:100F900090931D0180931E0170931F0160932601A1
:100FA000509327014093280130932901FF91EF913D
:100FB000DF91CF91BF91AF919F918F917F916F9171
:100FC0005F914F913F912F911F9100912B010FBF86
:100FD0000F911895C9990895B199089506B302FD26
:100FE00001C0089500E00093130104E000930301A1
:100FF000BBDA25DDD0D903E00093030111DA1FDD50
:1010000001E0009313010FE005BD002704BD0FE0D0
:1010100003BD09B7006809BFF89400271127109392
:101020003101009330017894F5DA0FEF93D80FEF88
:1010300091D80FEF8FD80FEF8DD80FEF8BD80FEF20
:1010400089D80FEF87D80FEF85D80FEF83D80FEF30
:1010500081D80FEF7FD80FEF7DD80FEF7BD80FEF40
:1010600079D80FEF77D80FEF75D8D4DA1091310116
:101070000091300110930C0100930D011F930F9309
:1010800003E000930301CCD9DADC0F911F91CCCFA0
:10109000089506B302FD01C0089506B301FD01C025
:1010A000089524E6112710930C0110930D0110935D
:1010B00007011F932F93AD9A0091070112E0019F42
:1010C000002D1AE0100F222700910C017FDC1395F0
:1010D00000910D017BDCAD982F911F91139510931A
:1010E00007012A9531F7002710E022276FDC1395BE
:1010F0006DDC13956BDC139569DC139567DC089543
:10110000C89B0895B19B0895B29B089501E0009398
:10111000340100933C01AC9803E00093110100E41A
:101120000ABF0BBF09D00E940003B199FECFC99935
:10113000FECFB299FECF08950F9301E000933801DE
:1011400000933C010F9108950F93002700933801FD
:101150000093350100933601009337010F910895F4
:101160000F932F933F934F93409135013091360168
:101170002091370100913801013061F421E03327DB
:1011800044274093350130933601209337010027DF
:10119000009338010027201305C0301303C040130B
:1011A00001C022C001E0200F0027301F401F0FEFB9
:1011B000201314C00FEF301311C008E040130EC00D
:1011C000AC9A01E00093110100E00BBF22272093AD
:1011D0003501209336012093370106C04093350135
:1011E00030933601209337014F913F912F910F910A
:1011F00008950F932F933F934F9300913401003044
:10120000F1F14091390130913A0120913B01009177
:101210003C01013061F421E0332744274093390138
:1012200030933A0120933B01002700933C010027B3
:10123000201305C0301303C0401301C020C001E0DB
:10124000200F0027301F401F0FEF201312C00FEF99
:1012500030130FC008E040130CC000E000933401CD
:10126000AD9822272093390120933A0120933B0126
:1012700006C04093390130933A0120933B014F91CE
:101280003F912F910F9108951895189518951895DD
:1012900018951895189518951895189518951895E6
:0812A000189518951895189592
:00000001FF
